S00C0000736166652E7372656379
S11300000C942A000C9447000C9447000C9447006D
S11300100C9447000C9447000C9447000C94470040
S11300200C9447000C9447000C9447000C94470030
S11300300C9447000C9447000C9447000C94470020
S11300400C9447000C9447000C9447000C94470010
S11300500C94470011241FBECFE5D8E0DEBFCDBF0E
S113006010E0A0E6B0E0E0E8FDE002C005900D92EB
S1130070A83CB107D9F710E0A8ECB0E001C01D928C
S1130080AC3CB107E1F70E942C050C94BE060C941D
S113009000008EBB9FBB6DBBE29AE19AE199FECF53
S11300A008958EBB9FBBE09A8DB3089584E460E00D
S11300B041E050E00E94030284E461E041E050E04A
S11300C00E94030284E462E041E050E00E940302E3
S11300D084E463E041E050E00E94030284E464E0CD
S11300E040E050E00E94030284E465E040E050E018
S11300F00E94030284E466E040E050E00E940302B0
S113010084E467E040E050E00E94030284E490E06D
S113011064E070E041E050E00E94A90484E490E0CF
S113012065E070E041E050E00E94A90484E490E0BE
S113013066E070E041E050E00E94A90484E490E0AD
S113014067E070E041E050E00E94A90408950F9335
S11301501F93CF93DF93CDB7DEB760970FB6F894B4
S1130160DEBF0FBECDBFDE011196E0E6F0E080E118
S113017001900D928150E1F700E084E460E041E0F9
S113018050E00E94980284E461E041E050E00E9463
S1130190980284E462E041E050E00E94980284E422
S11301A063E041E050E00E94980284E4602F40E064
S11301B050E00E94980210E0612F6C5F84E40E947A
S11301C02D03882361F4E02FF0E0EE0FFF1FEE0F04
S11301D0FF1FE10FF11DEC0FFD1F818104C01F5FA4
S11301E0143051F70BC060960FB6F894DEBF0FBE03
S11301F0CDBFDF91CF911F910F9108950F5F043010
S113020009F0BBCF8FEFEFCF82E460E041E050E034
S11302100E9498028FE99FE00197F1F700C0000067
S113022082E460E040E050E00E9498028FE99FE0A1
S11302300197F1F700C000000895682F81E470E091
S11302400E94260482E461E041E050E00E949802AA
S11302500E9404018FEC97E00197F1F700C00000C1
S11302600895682F81E470E00E94260482E461E02E
S113027040E050E00E9498020E9404018FEC97E055
S11302800197F1F700C00000089581E00E94310158
S11302908FE19EE40197F1F700C0000008958FEF0D
S11302A091EEA4E081509040A040E1F700C000002E
S11302B081E460E041E050E00E94030281E461E0F7
S11302C041E050E00E94030281E462E041E050E03A
S11302D00E94030281E463E041E050E00E940302D3
S11302E081E464E041E050E00E94030281E465E0BF
S11302F041E050E00E94030281E466E041E050E006
S11303000E94030281E467E041E050E00E9403029E
S113031082E460E041E050E00E94030282E462E093
S113032041E050E00E94030282E461E041E050E0D9
S11303300E94030282E462E040E050E00E949802DE
S113034088E30E943101AFECB7E01197F1F700C0E8
S113035000008EE00E9431018FEC97E00197F1F7E5
S113036000C0000081E00E943101AFECB7E01197BA
S1130370F1F700C0000086E00E9431018FEC97E0A5
S11303800197F1F700C000000895CF93DF93EC01CB
S11303908881882331F021960E941D018991882348
S11303A0D9F7DF91CF910895282F2150223060F49E
S11303B0613160F4813019F4962F915808C082306D
S11303C031F4962F915403C090E801C090E8892F2E
S11303D00E9431018FEC97E00197F1F700C0000013
S11303E0089541E050E00E940302089541E050E086
S11303F00E949802089540E050E00E9498020895F7
S11304000E9493030895843409F474C0853448F435
S11304108234A1F1833408F04FC0813409F087C0DD
S11304200FC0823659F1833620F4813609F07FC03B
S113043007C0833609F440C0843609F078C05AC036
S11304404130510569F42AB381E090E0AC0102C067
S1130450440F551F6A95E2F7BA01622B6ABB0895EF
S11304602AB381E090E0AC0102C0440F551F6A95A5
S1130470E2F7BA01609562236ABB089541305105E1
S113048069F427B381E090E0AC0102C0440F551F2A
S11304906A95E2F7BA01622B67BB089527B381E03E
S11304A090E0AC0102C0440F551F6A95E2F7BA010F
S11304B06095622367BB08954130510569F424B304
S11304C081E090E0AC0102C0440F551F6A95E2F749
S11304D0BA01622B64BB089524B381E090E0AC01BF
S11304E002C0440F551F6A95E2F7BA016095622372
S11304F064BB08954130510569F421B381E090E073
S1130500AC0102C0440F551F6A95E2F7BA01622B91
S113051061BB089521B381E090E0AC0102C0440FB7
S1130520551F6A95E2F7BA016095622361BB08958D
S1130530843409F474C0853448F48234A1F18334DA
S113054008F04FC0813409F087C00FC0823659F1DA
S1130550833620F4813609F07FC007C0833609F45E
S113056040C0843609F078C05AC04130510569F45E
S11305702BB381E090E0AC0102C0440F551F6A9593
S1130580E2F7BA01622B6BBB08952BB381E090E0D4
S1130590AC0102C0440F551F6A95E2F7BA01609599
S11305A062236BBB08954130510569F428B381E09F
S11305B090E0AC0102C0440F551F6A95E2F7BA01FE
S11305C0622B68BB089528B381E090E0AC0102C0BF
S11305D0440F551F6A95E2F7BA016095622368BB20
S11305E008954130510569F425B381E090E0AC01F0
S11305F002C0440F551F6A95E2F7BA01622B65BB2E
S1130600089525B381E090E0AC0102C0440F551F6A
S11306106A95E2F7BA016095622365BB089541309B
S1130620510569F422B381E090E0AC0102C0440FAB
S1130630551F6A95E2F7BA01622B62BB089522B393
S113064081E090E0AC0102C0440F551F6A95E2F7C7
S1130650BA016095622362BB0895843409F44EC0E4
S1130660853440F4823431F18334B0F5813409F0B7
S113067057C00EC08236F1F0833620F4813609F07B
S11306804FC006C0833641F1843609F049C036C0F4
S113069029B381E090E0062E02C0880F991F0A94C6
S11306A0E2F730E08223932302C0959587956A95FB
S11306B0E2F7089526B381E090E0062E02C0880F89
S11306C0991F0A94E2F730E08223932302C09595A0
S11306D087956A95E2F7089523B381E090E0062EAA
S11306E002C0880F991F0A94E2F730E08223932313
S11306F002C0959587956A95E2F7089520B381E045
S113070090E0062E02C0880F991F0A94E2F730E0A9
S11307108223932302C0959587956A95E2F70895FD
S113072080E090E00895843409F43DC0853440F4B9
S11307308234F9F0833450F5813409F040C00CC0A0
S11307408236B9F0833618F48136C9F505C083368C
S1130750E9F08436A1F527C02BB381E090E0AC0129
S113076002C0440F551F6A95E2F7BA0162276BBBBA
S1130770089528B381E090E0AC0102C0440F551FF6
S11307806A95E2F7BA01622768BB089525B381E050
S113079090E0AC0102C0440F551F6A95E2F7BA011C
S11307A0622765BB089522B381E090E0AC0102C0EA
S11307B0440F551F6A95E2F7BA01622762BB089598
S11307C08434D9F0853438F4823499F0833498F43D
S11307D08134A1F40CC0823661F0833618F481367A
S11307E069F405C0833639F0843641F406C06ABB27
S11307F0089567BB089564BB089561BB089584346C
S113080009F1853438F48234A9F08334B8F481349E
S1130810E1F40CC0823671F0833618F48136A9F401
S113082005C0833659F0843681F40CC08BB38095AF
S11308308BBB089588B3809588BB089585B3809554
S113084085BB089582B3809582BB08958434D9F022
S1130850853438F4823499F0833498F48134A1F4E3
S11308600CC0823661F0833618F4813669F405C011
S1130870833639F0843641F406C06BBB089568BBF7
S1130880089565BB089562BB0895823461F0833492
S113089018F4813471F405C0833439F0843449F494
S11308A006C089B3089586B3089583B3089580B3C9
S11308B0089580E090E008956F70823481F083346D
S11308C018F48134F1F405C0833479F08434C9F424
S11308D012C08BB3807F8BBB8BB3862B8BBB88B34F
S11308E0807F88BB88B3862B88BB85B3807F85BB1C
S11308F085B3862B85BB82B3807F82BB82B3682B92
S113090062BB08956295607F823481F0833418F469
S11309108134F1F405C0833479F08434C9F412C00D
S11309208BB38F708BBB8BB3862B8BBB88B38F70D1
S113093088BB88B3862B88BB85B38F7085BB85B392
S1130940862B85BB82B38F7082BB82B3682B62BB5C
S11309500895823451F1833420F4813409F07BC04A
S113096007C0833409F43EC0843409F074C057C00E
S1130970413069F42BB381E090E0AC0102C0440F34
S1130980551F6A95E2F7BA01622B6BBB08952BB32E
S113099081E090E0AC0102C0440F551F6A95E2F774
S11309A0BA01609562236BBB0895413069F428B3A2
S11309B081E090E0AC0102C0440F551F6A95E2F754
S11309C0BA01622B68BB089528B381E090E0AC01C2
S11309D002C0440F551F6A95E2F7BA01609562237D
S11309E068BB0895413069F425B381E090E0AC011F
S11309F002C0440F551F6A95E2F7BA01622B65BB2A
S1130A00089525B381E090E0AC0102C0440F551F66
S1130A106A95E2F7BA016095622365BB0895413097
S1130A2069F422B381E090E0AC0102C0440F551F89
S1130A306A95E2F7BA01622B62BB089522B381E0A2
S1130A4090E0AC0102C0440F551F6A95E2F7BA0169
S1130A506095622362BB08952F923F924F925F92FA
S1130A606F927F928F929F92AF92BF92CF92DF92BA
S1130A70EF92FF920F931F93CF93DF9300D00F92C7
S1130A80CDB7DEB70E9456000E944F0183E490E088
S1130A9060E070E00E94F10183E490E061E070E0C6
S1130AA00E94F10183E490E062E070E00E94F101B1
S1130AB083E490E063E070E00E94F10180E290E062
S1130AC00E9451008F3F9105E1F580E790E00E947C
S1130AD0C5010F2EF1E2EF2EFF24F02D0E94A70096
S1130AE0182F8F3FD9F30E941D018FEF94E3ACE0E0
S1130AF081509040A040E1F700C000006E2D675186
S1130B0081E00E94D4018AE20E941D018FEF94E3E8
S1130B10ACE081509040A040E1F700C00000C70164
S1130B20612F70E00E9449000894E11CF11C95E2D9
S1130B30E916F10499F680E290E060E070E00E942A
S1130B4049000F2EF1E3FF2EF02D0F2EFBECCF2EDC
S1130B50F0E0DF2EF02D0FEF460108948108910894
S1130B600F2EFEEF6F2EFFEF7F2EF02D6C0C7D1CF1
S1130B700F2EFDEFAF2EFFEFBF2EF02DAC0CBD1CE2
S1130B800F2EFAE74F2EF0E05F2EF02DEA2CB982FB
S1130B900F2EF8EC2F2EF0E03F2EF02DD6010C9303
S1130BA0F4010083D3010C93F50100830E944501F5
S1130BB0C2010E94C501EA82F981FB831CE00E9404
S1130BC0A700AA81BB818C938F3FC9F30E941D01AA
S1130BD08FEF94E3ACE081509040A040E1F700C077
S1130BE0000081E0612F0E94D4018AE20E941D016D
S1130BF08FEF94E3ACE081509040A040E1F700C057
S1130C0000001F5FAA81BB811196BB83AA831031A8
S1130C10B1F681E290E00E945100F101208130E0C0
S1130C2082179307D9F582E290E00E945100A9EC63
S1130C30B0E02C9130E08217930781F583E290E0D5
S1130C400E945100EAECF0E0208130E08217930723
S1130C5029F584E290E00E945100D6012C9130E005
S1130C6082179307D9F40E94450186E890E00E9418
S1130C70C50182E061E00E94D40185E990E00E9410
S1130C80C50183E690E062E070E00E94F60183E62D
S1130C9090E060E070E00E94FB0158C0B0E3FB16F6
S1130CA079F183E690E062E070E00E94FB010E942B
S1130CB0450181EA90E00E94C50183E690E060E08E
S1130CC070E00E94F6018FEF99E6A8E18150904010
S1130CD0A040E1F700C000000E94450180EB90E0D5
S1130CE00E94C5018F2D0E941D018FEF99E6A8E196
S1130CF081509040A040E1F700C00000FA944ECF2C
S1130D0083E690E062E070E00E94FB0183E690E0FD
S1130D1060E070E00E94FB010E94450181EA90E0DE
S1130D200E94C50182E061E00E94D4018CEB90E056
S1130D300E94C50183E690E061E070E00E94F60144
S1130D4083E690E063E070E00E94F60180E090E0CA
S1130D500F900F900F90DF91CF911F910F91FF9003
S1130D60EF90DF90CF90BF90AF909F908F907F9047
S1130D706F905F904F903F902F900895F894FFCF1D
S1130D803132332F3435362A3738392D41303D2B23
S1130D9073657420706173733A00636865636B20D4
S1130DA0706173733A007269676874207061737359
S1130DB0776F72640073616665206F70656E656439
S1130DC00077726F6E672070617373776F7264005F
S1130DD07472696573206C6566743A007361666544
S10B0DE020636C6F736564006D
S9030000FC
